{
  "contractName": "DujeToken",
  "abi": [
    {
      "inputs": [
        {
          "internalType": "string",
          "name": "_name",
          "type": "string"
        },
        {
          "internalType": "string",
          "name": "_symbol",
          "type": "string"
        },
        {
          "internalType": "uint8",
          "name": "_decimals",
          "type": "uint8"
        },
        {
          "internalType": "uint256",
          "name": "_initialSupply",
          "type": "uint256"
        }
      ],
      "stateMutability": "nonpayable",
      "type": "constructor"
    },
    {
      "anonymous": false,
      "inputs": [
        {
          "indexed": true,
          "internalType": "address",
          "name": "from",
          "type": "address"
        },
        {
          "indexed": true,
          "internalType": "address",
          "name": "to",
          "type": "address"
        },
        {
          "indexed": false,
          "internalType": "uint256",
          "name": "amount",
          "type": "uint256"
        }
      ],
      "name": "TokenTransferred",
      "type": "event"
    },
    {
      "anonymous": false,
      "inputs": [
        {
          "indexed": true,
          "internalType": "address",
          "name": "from",
          "type": "address"
        },
        {
          "indexed": false,
          "internalType": "uint256",
          "name": "amount",
          "type": "uint256"
        }
      ],
      "name": "TokensBurned",
      "type": "event"
    },
    {
      "anonymous": false,
      "inputs": [
        {
          "indexed": true,
          "internalType": "address",
          "name": "to",
          "type": "address"
        },
        {
          "indexed": false,
          "internalType": "uint256",
          "name": "amount",
          "type": "uint256"
        }
      ],
      "name": "TokensMinted",
      "type": "event"
    },
    {
      "inputs": [
        {
          "internalType": "address",
          "name": "",
          "type": "address"
        }
      ],
      "name": "accountBalance",
      "outputs": [
        {
          "internalType": "uint256",
          "name": "",
          "type": "uint256"
        }
      ],
      "stateMutability": "view",
      "type": "function",
      "constant": true
    },
    {
      "inputs": [],
      "name": "tokenDecimals",
      "outputs": [
        {
          "internalType": "uint8",
          "name": "",
          "type": "uint8"
        }
      ],
      "stateMutability": "view",
      "type": "function",
      "constant": true
    },
    {
      "inputs": [],
      "name": "tokenName",
      "outputs": [
        {
          "internalType": "string",
          "name": "",
          "type": "string"
        }
      ],
      "stateMutability": "view",
      "type": "function",
      "constant": true
    },
    {
      "inputs": [],
      "name": "tokenOwner",
      "outputs": [
        {
          "internalType": "address",
          "name": "",
          "type": "address"
        }
      ],
      "stateMutability": "view",
      "type": "function",
      "constant": true
    },
    {
      "inputs": [],
      "name": "tokenSymbol",
      "outputs": [
        {
          "internalType": "string",
          "name": "",
          "type": "string"
        }
      ],
      "stateMutability": "view",
      "type": "function",
      "constant": true
    },
    {
      "inputs": [],
      "name": "totalTokenSupply",
      "outputs": [
        {
          "internalType": "uint256",
          "name": "",
          "type": "uint256"
        }
      ],
      "stateMutability": "view",
      "type": "function",
      "constant": true
    },
    {
      "inputs": [
        {
          "internalType": "address",
          "name": "_to",
          "type": "address"
        },
        {
          "internalType": "uint256",
          "name": "_amount",
          "type": "uint256"
        }
      ],
      "name": "transferTokens",
      "outputs": [
        {
          "internalType": "bool",
          "name": "",
          "type": "bool"
        }
      ],
      "stateMutability": "nonpayable",
      "type": "function"
    },
    {
      "inputs": [
        {
          "internalType": "address",
          "name": "_address",
          "type": "address"
        }
      ],
      "name": "checkAccountBalance",
      "outputs": [
        {
          "internalType": "uint256",
          "name": "",
          "type": "uint256"
        }
      ],
      "stateMutability": "view",
      "type": "function",
      "constant": true
    },
    {
      "inputs": [
        {
          "internalType": "uint256",
          "name": "_amount",
          "type": "uint256"
        }
      ],
      "name": "mintTokens",
      "outputs": [],
      "stateMutability": "nonpayable",
      "type": "function"
    },
    {
      "inputs": [
        {
          "internalType": "uint256",
          "name": "_amount",
          "type": "uint256"
        }
      ],
      "name": "burnTokens",
      "outputs": [],
      "stateMutability": "nonpayable",
      "type": "function"
    }
  ],
  "bytecode": "0x60806040523480156200001157600080fd5b50604051620016143803806200161483398181016040528101906200003791906200028a565b83600090805190602001906200004f9291906200013a565b508260019080519060200190620000689291906200013a565b5081600260006101000a81548160ff021916908360ff1602179055508160ff16600a620000969190620003ea565b81620000a3919062000527565b600381905550600354600460003373ffffffffffffffffffffffffffffffffffffffff1673ffffffffffffffffffffffffffffffffffffffff1681526020019081526020016000208190555033600560006101000a81548173ffffffffffffffffffffffffffffffffffffffff021916908373ffffffffffffffffffffffffffffffffffffffff16021790555050505050620006d9565b8280546200014890620005d5565b90600052602060002090601f0160209004810192826200016c5760008555620001b8565b82601f106200018757805160ff1916838001178555620001b8565b82800160010185558215620001b8579182015b82811115620001b75782518255916020019190600101906200019a565b5b509050620001c79190620001cb565b5090565b5b80821115620001e6576000816000905550600101620001cc565b5090565b600062000201620001fb846200035c565b62000328565b9050828152602081018484840111156200021a57600080fd5b620002278482856200059f565b509392505050565b600082601f8301126200024157600080fd5b815162000253848260208601620001ea565b91505092915050565b6000815190506200026d81620006a5565b92915050565b6000815190506200028481620006bf565b92915050565b60008060008060808587031215620002a157600080fd5b600085015167ffffffffffffffff811115620002bc57600080fd5b620002ca878288016200022f565b945050602085015167ffffffffffffffff811115620002e857600080fd5b620002f6878288016200022f565b9350506040620003098782880162000273565b92505060606200031c878288016200025c565b91505092959194509250565b6000604051905081810181811067ffffffffffffffff8211171562000352576200035162000669565b5b8060405250919050565b600067ffffffffffffffff8211156200037a576200037962000669565b5b601f19601f8301169050602081019050919050565b6000808291508390505b6001851115620003e157808604811115620003b957620003b86200060b565b5b6001851615620003c95780820291505b8081029050620003d98562000698565b945062000399565b94509492505050565b6000620003f78262000588565b9150620004048362000588565b9250620004337fffffffffffffffffffffffffffffffffffffffffffffffffffffffffffffffff84846200043b565b905092915050565b6000826200044d576001905062000520565b816200045d576000905062000520565b81600181146200047657600281146200048157620004b7565b600191505062000520565b60ff8411156200049657620004956200060b565b5b8360020a915084821115620004b057620004af6200060b565b5b5062000520565b5060208310610133831016604e8410600b8410161715620004f15782820a905083811115620004eb57620004ea6200060b565b5b62000520565b6200050084848460016200038f565b925090508184048111156200051a57620005196200060b565b5b81810290505b9392505050565b6000620005348262000588565b9150620005418362000588565b9250817fffffffffffffffffffffffffffffffffffffffffffffffffffffffffffffffff04831182151516156200057d576200057c6200060b565b5b828202905092915050565b6000819050919050565b600060ff82169050919050565b60005b83811015620005bf578082015181840152602081019050620005a2565b83811115620005cf576000848401525b50505050565b60006002820490506001821680620005ee57607f821691505b602082108114156200060557620006046200063a565b5b50919050565b7f4e487b7100000000000000000000000000000000000000000000000000000000600052601160045260246000fd5b7f4e487b7100000000000000000000000000000000000000000000000000000000600052602260045260246000fd5b7f4e487b7100000000000000000000000000000000000000000000000000000000600052604160045260246000fd5b60008160011c9050919050565b620006b08162000588565b8114620006bc57600080fd5b50565b620006ca8162000592565b8114620006d657600080fd5b50565b610f2b80620006e96000396000f3fe608060405234801561001057600080fd5b506004361061009e5760003560e01c80637b61c320116100665780637b61c3201461014957806397304ced14610167578063a3e6761014610183578063bec3fa17146101a1578063d294cb0f146101d15761009e565b80631ca8b6cb146100a35780633b97e856146100c1578063530c06b4146100df5780636c02a9311461010f5780636d1b229d1461012d575b600080fd5b6100ab610201565b6040516100b89190610cc2565b60405180910390f35b6100c9610207565b6040516100d69190610cdd565b60405180910390f35b6100f960048036038101906100f491906109c1565b61021a565b6040516101069190610cc2565b60405180910390f35b610117610263565b6040516101249190610c20565b60405180910390f35b61014760048036038101906101429190610a26565b6102f1565b005b610151610529565b60405161015e9190610c20565b60405180910390f35b610181600480360381019061017c9190610a26565b6105b7565b005b61018b61074b565b6040516101989190610bea565b60405180910390f35b6101bb60048036038101906101b691906109ea565b610771565b6040516101c89190610c05565b60405180910390f35b6101eb60048036038101906101e691906109c1565b61097f565b6040516101f89190610cc2565b60405180910390f35b60035481565b600260009054906101000a900460ff1681565b6000600460008373ffffffffffffffffffffffffffffffffffffffff1673ffffffffffffffffffffffffffffffffffffffff168152602001908152602001600020549050919050565b6000805461027090610e26565b80601f016020809104026020016040519081016040528092919081815260200182805461029c90610e26565b80156102e95780601f106102be576101008083540402835291602001916102e9565b820191906000526020600020905b8154815290600101906020018083116102cc57829003601f168201915b505050505081565b600560009054906101000a900473ffffffffffffffffffffffffffffffffffffffff1673ffffffffffffffffffffffffffffffffffffffff163373ffffffffffffffffffffffffffffffffffffffff1614610381576040517f08c379a000000000000000000000000000000000000000000000000000000000815260040161037890610c42565b60405180910390fd5b60046000600560009054906101000a900473ffffffffffffffffffffffffffffffffffffffff1673ffffffffffffffffffffffffffffffffffffffff1673ffffffffffffffffffffffffffffffffffffffff16815260200190815260200160002054811115610425576040517f08c379a000000000000000000000000000000000000000000000000000000000815260040161041c90610ca2565b60405180910390fd5b80600360008282546104379190610d6a565b925050819055508060046000600560009054906101000a900473ffffffffffffffffffffffffffffffffffffffff1673ffffffffffffffffffffffffffffffffffffffff1673ffffffffffffffffffffffffffffffffffffffff16815260200190815260200160002060008282546104af9190610d6a565b92505081905550600560009054906101000a900473ffffffffffffffffffffffffffffffffffffffff1673ffffffffffffffffffffffffffffffffffffffff167ffd38818f5291bf0bb3a2a48aadc06ba8757865d1dabd804585338aab3009dcb68260405161051e9190610cc2565b60405180910390a250565b6001805461053690610e26565b80601f016020809104026020016040519081016040528092919081815260200182805461056290610e26565b80156105af5780601f10610584576101008083540402835291602001916105af565b820191906000526020600020905b81548152906001019060200180831161059257829003601f168201915b505050505081565b600560009054906101000a900473ffffffffffffffffffffffffffffffffffffffff1673ffffffffffffffffffffffffffffffffffffffff163373ffffffffffffffffffffffffffffffffffffffff1614610647576040517f08c379a000000000000000000000000000000000000000000000000000000000815260040161063e90610c42565b60405180910390fd5b80600360008282546106599190610d14565b925050819055508060046000600560009054906101000a900473ffffffffffffffffffffffffffffffffffffffff1673ffffffffffffffffffffffffffffffffffffffff1673ffffffffffffffffffffffffffffffffffffffff16815260200190815260200160002060008282546106d19190610d14565b92505081905550600560009054906101000a900473ffffffffffffffffffffffffffffffffffffffff1673ffffffffffffffffffffffffffffffffffffffff167f3f2c9d57c068687834f0de942a9babb9e5acab57d516d3480a3c16ee165a4273826040516107409190610cc2565b60405180910390a250565b600560009054906101000a900473ffffffffffffffffffffffffffffffffffffffff1681565b60008073ffffffffffffffffffffffffffffffffffffffff168373ffffffffffffffffffffffffffffffffffffffff1614156107e2576040517f08c379a00000000000000000000000000000000000000000000000000000000081526004016107d990610c62565b60405180910390fd5b600460003373ffffffffffffffffffffffffffffffffffffffff1673ffffffffffffffffffffffffffffffffffffffff16815260200190815260200160002054821115610864576040517f08c379a000000000000000000000000000000000000000000000000000000000815260040161085b90610c82565b60405180910390fd5b81600460003373ffffffffffffffffffffffffffffffffffffffff1673ffffffffffffffffffffffffffffffffffffffff16815260200190815260200160002060008282546108b39190610d6a565b9250508190555081600460008573ffffffffffffffffffffffffffffffffffffffff1673ffffffffffffffffffffffffffffffffffffffff16815260200190815260200160002060008282546109099190610d14565b925050819055508273ffffffffffffffffffffffffffffffffffffffff163373ffffffffffffffffffffffffffffffffffffffff167f9c8515990fd8c61431c4ac8db9b81475f90c292a1dda77731e56c22e64fc76438460405161096d9190610cc2565b60405180910390a36001905092915050565b60046020528060005260406000206000915090505481565b6000813590506109a681610ec7565b92915050565b6000813590506109bb81610ede565b92915050565b6000602082840312156109d357600080fd5b60006109e184828501610997565b91505092915050565b600080604083850312156109fd57600080fd5b6000610a0b85828601610997565b9250506020610a1c858286016109ac565b9150509250929050565b600060208284031215610a3857600080fd5b6000610a46848285016109ac565b91505092915050565b610a5881610d9e565b82525050565b610a6781610db0565b82525050565b6000610a7882610cf8565b610a828185610d03565b9350610a92818560208601610df3565b610a9b81610eb6565b840191505092915050565b6000610ab3602583610d03565b91507f4f6e6c7920746865206f776e65722063616e2063616c6c20746869732066756e60008301527f6374696f6e0000000000000000000000000000000000000000000000000000006020830152604082019050919050565b6000610b19600f83610d03565b91507f496e76616c6964206164647265737300000000000000000000000000000000006000830152602082019050919050565b6000610b59601483610d03565b91507f496e73756666696369656e742062616c616e63650000000000000000000000006000830152602082019050919050565b6000610b99602083610d03565b91507f496e73756666696369656e742062616c616e636520666f72206275726e696e676000830152602082019050919050565b610bd581610ddc565b82525050565b610be481610de6565b82525050565b6000602082019050610bff6000830184610a4f565b92915050565b6000602082019050610c1a6000830184610a5e565b92915050565b60006020820190508181036000830152610c3a8184610a6d565b905092915050565b60006020820190508181036000830152610c5b81610aa6565b9050919050565b60006020820190508181036000830152610c7b81610b0c565b9050919050565b60006020820190508181036000830152610c9b81610b4c565b9050919050565b60006020820190508181036000830152610cbb81610b8c565b9050919050565b6000602082019050610cd76000830184610bcc565b92915050565b6000602082019050610cf26000830184610bdb565b92915050565b600081519050919050565b600082825260208201905092915050565b6000610d1f82610ddc565b9150610d2a83610ddc565b9250827fffffffffffffffffffffffffffffffffffffffffffffffffffffffffffffffff03821115610d5f57610d5e610e58565b5b828201905092915050565b6000610d7582610ddc565b9150610d8083610ddc565b925082821015610d9357610d92610e58565b5b828203905092915050565b6000610da982610dbc565b9050919050565b60008115159050919050565b600073ffffffffffffffffffffffffffffffffffffffff82169050919050565b6000819050919050565b600060ff82169050919050565b60005b83811015610e11578082015181840152602081019050610df6565b83811115610e20576000848401525b50505050565b60006002820490506001821680610e3e57607f821691505b60208210811415610e5257610e51610e87565b5b50919050565b7f4e487b7100000000000000000000000000000000000000000000000000000000600052601160045260246000fd5b7f4e487b7100000000000000000000000000000000000000000000000000000000600052602260045260246000fd5b6000601f19601f8301169050919050565b610ed081610d9e565b8114610edb57600080fd5b50565b610ee781610ddc565b8114610ef257600080fd5b5056fea2646970667358221220557c5962f203835dc22a6434574b2ef678248bf61a20857f2adb80f54a2822de64736f6c63430008000033",
  "immutableReferences": {},
  "source": "// SPDX-License-Identifier: MIT\r\npragma solidity ^0.8.0;\r\n\r\ncontract DujeToken {\r\n    string public tokenName;\r\n    string public tokenSymbol;\r\n    uint8 public tokenDecimals;\r\n    uint256 public totalTokenSupply;\r\n\r\n    mapping(address => uint256) public accountBalance;\r\n\r\n    address public tokenOwner;\r\n\r\n    event TokenTransferred(address indexed from, address indexed to, uint256 amount);\r\n    event TokensMinted(address indexed to, uint256 amount);\r\n    event TokensBurned(address indexed from, uint256 amount);\r\n\r\n    modifier onlyTokenOwner() {\r\n        require(msg.sender == tokenOwner, \"Only the owner can call this function\");\r\n        _;\r\n    }\r\n\r\n    constructor(\r\n        string memory _name,\r\n        string memory _symbol,\r\n        uint8 _decimals,\r\n        uint256 _initialSupply\r\n    ) {\r\n        tokenName = _name;\r\n        tokenSymbol = _symbol;\r\n        tokenDecimals = _decimals;\r\n        totalTokenSupply = _initialSupply * 10**uint256(_decimals);\r\n        accountBalance[msg.sender] = totalTokenSupply;\r\n        tokenOwner = msg.sender;\r\n    }\r\n\r\n    function transferTokens(address _to, uint256 _amount) external returns (bool) {\r\n        require(_to != address(0), \"Invalid address\");\r\n        require(_amount <= accountBalance[msg.sender], \"Insufficient balance\");\r\n\r\n        accountBalance[msg.sender] -= _amount;\r\n        accountBalance[_to] += _amount;\r\n\r\n        emit TokenTransferred(msg.sender, _to, _amount);\r\n        return true;\r\n    }\r\n\r\n    function checkAccountBalance(address _address) external view returns (uint256) {\r\n        return accountBalance[_address];\r\n    }\r\n\r\n    function mintTokens(uint256 _amount) external onlyTokenOwner {\r\n        totalTokenSupply += _amount;\r\n        accountBalance[tokenOwner] += _amount;\r\n\r\n        emit TokensMinted(tokenOwner, _amount);\r\n    }\r\n\r\n    function burnTokens(uint256 _amount) external onlyTokenOwner {\r\n        require(_amount <= accountBalance[tokenOwner], \"Insufficient balance for burning\");\r\n\r\n        totalTokenSupply -= _amount;\r\n        accountBalance[tokenOwner] -= _amount;\r\n\r\n        emit TokensBurned(tokenOwner, _amount);\r\n    }\r\n}\r\n",
  "sourcePath": "C:\\repos\\Blockchain\\contracts\\DujeToken.sol",
  "compiler": {
    "name": "solc",
    "version": "0.8.0+commit.c7dfd78e.Emscripten.clang"
  },
  "schemaVersion": "3.4.16",
  "updatedAt": "2024-02-01T20:27:29.433Z",
  "networkType": "ethereum",
  "devdoc": {
    "kind": "dev",
    "methods": {},
    "version": 1
  },
  "userdoc": {
    "kind": "user",
    "methods": {},
    "version": 1
  }
}